S01200004C6162365F50617274422E7372656395
S11300000C94FE000C9424010C9424010C942401FF
S11300100C9424010C9424010C9424010C942401C8
S11300200C9424010C9424010C9424010C942401B8
S11300300C9424010C9424010C9424010C942401A8
S11300400C9424010C9424010C9424010C94240198
S11300500C9424010C9424010C9424010C94240188
S11300600C9424010C9424010C9424010C94240178
S11300700C9424010C9424010C9424010C94240168
S11300800C9424010C9424010C9424010C94240158
S11300900C9424010C9424010C9424010C94240148
S11300A00C9424010C9424010C9424010C94240138
S11300B00C9424010C9424010C9424010C94240128
S11300C00C9424010C9424010C9424010C94240118
S11300D00C9424010C948D0A0C9424010C94240196
S11300E00C9424010C9424010C9424010C942401F8
S11300F00C9424010C9424010C9424010C942401E8
S11301000C9424010C9424010C9424010C942401D7
S11301100C9424010C9424010C9424010C942401C7
S11301200C9424010C9424010C9424010C942401B7
S11301300C9424010C9424010C9424010C942401A7
S11301400C9424010C9424010C9424010C94240197
S11301500C9424010C9424010C9424010C94240187
S11301600C9424010C9424010C9424010C94240177
S11301700C9424010C9424010C9424010C94240167
S11301800C9424010C9424010C9424010C94240157
S11301900C9424010C9424010C9424010C94240147
S11301A00C9424010C9424010C9424010C94240137
S11301B00C9424010C9424010C9424010C94240127
S11301C00C9424010C9424010C9424010C94240117
S11301D00C9424010C9424010C9424010C94240107
S11301E00C9424010C9424010C9424010C942401F7
S11301F00C9424010C9424010C94240111241FBE9A
S1130200CFEFCDBFDFE3DEBF00E00CBF18BE19BEE9
S11302101ABE1BBE11E2A0E0B0E2E8EEF8E100E095
S11302200BBF02C007900D92A032B107D9F71BBED5
S113023021E2A0E2B1E201C01D92A232B207E1F7CD
S11302400E9442080C94720C0C940000E0E8F6E062
S113025081E0828392E09183E0E0FAE0808381E2AE
S113026081831382148280E881870895E0E4FAE0B0
S113027085E08083118281E0868384E89EE186A301
S113028097A30895E0E0FAE01082118210A611A667
S11302900895E0EEF6E087E3808383E384838FEFC1
S11302A080932007E0E4F4E081E0808388E2838B9C
S11302B080E8828B85E1808B80E499E3868B978B41
S11302C089E1848B0895E0EAF6E08FE0808388E199
S11302D0848B858B868B878B08956F927F928F9208
S11302E09F92AF92BF92CF92DF92EF92FF920F93C1
S11302F01F93CF93DF93CDB7DEB7AA97CDBFDEBFF1
S113030088E0E0E0F0E2DE01119601900D928A951A
S1130310E1F788E0E8E0F0E2DE01199601900D9241
S11303208A95E1F788E0E0E1F0E2DE015196019080
S11303300D928A95E1F788E0E8E1F0E2DE01599652
S113034001900D928A95E1F788E0E0E2F0E2DE01A7
S1130350919601900D928A95E1F719A61AA6C9A063
S1130360DAA0A98CBA8C89889A8869847A84DE0197
S1130370119601E010E060E070E00F2EF0EAEF2E3D
S1130380F6E0FF2EF02D04C06F5F7F4F0F5F1F4F0D
S11303908C911296F701848300000000808590E020
S11303A089A79AA76115710531F589A59AA56816DB
S11303B0790609F498C0FE013B9641E050E0219192
S11303C0319189A59AA52817390779F44330510545
S11303D009F48CC04230510509F48BC041305105F9
S11303E009F48AC08EE090E0ADC04F5F5F4F4430A7
S11303F0510529F7C9CF6130710531F589A59AA551
S11304008816990609F47BC0FE01739641E050E01A
S11304102191319189A59AA52817390779F4433098
S1130420510509F46FC04230510509F46EC04130E2
S1130430510509F46DC080E090E084C04F5F5F4FC8
S11304404430510529F7A0CF6230710531F089A5F8
S11304509AA5C816D90639F55EC089A59AA5A81625
S1130460B90609F45BC0FE017B9641E050E021919E
S1130470319189A59AA52817390779F44330510594
S113048009F44FC04230510509F44EC041305105C2
S113049009F44DC08FE090E055C04F5F5F4F44308A
S11304A0510529F771CFFE01B39681E090E04191A7
S11304B0519129A53AA54217530751F40097D1F158
S11304C081309105D1F10297D9F18AE090E03AC0E8
S11304D001968430910559F7043011050CF454CF7A
S11304E080E190E02FC08EE090E02CC081E090E0AD
S11304F029C084E090E026C087E090E023C080E03B
S113050090E020C082E090E01DC085E090E01AC039
S113051088E090E017C08DE090E014C08FE090E098
S113052011C083E090E00EC086E090E00BC089E04B
S113053090E008C08DE090E005C08CE090E002C03F
S11305408BE090E0AA96CDBFDEBFDF91CF911F91E3
S11305500F91FF90EF90DF90CF90BF90AF909F905E
S11305608F907F906F900895CF93DF931F92CDB7B4
S1130570DEB70000000080E090E5A9E3B0E00BB630
S1130580ABBFFC0180810BBE8983898188236CF415
S113059040E050E569E370E00BB66BBFFA0180817F
S11305A00BBE898389818823BCF30F90DF91CF919F
S11305B008950E94B40228E380E090E5A9E3B0E046
S11305C00BB6ABBFFC0120830BBE0E94B4022FE02C
S11305D080E090E5A9E3B0E00BB6ABBFFC0120835B
S11305E00BBE0E94B40221E080E090E5A9E3B0E0F4
S11305F00BB6ABBFFC0120830BBE0E94B40208956E
S1130600CF93C82F0E94B40241E050E569E370E043
S11306100BB66BBFFA01C0830BBECF910895CF9385
S1130620DF93EC018881882341F021960E94000326
S11306300E94B40289918111F9CFDF91CF9108957D
S11306400F931F93CF93DF938C01EB0121E080E0A4
S113065090E5A9E3B0E00BB6ABBFFC0120830BBE71
S11306600E94B402C8010E940F030E94B40220EC4D
S113067080E090E5A9E3B0E00BB6ABBFFC012083BA
S11306800BBE0E94B402CE010E940F03DF91CF91F2
S11306901F910F9108950E942003E0E4FAE080E5A1
S11306A095E486A397A388E081870E942601089594
S11306B0CF93DF93BC01C0E0DAE081E08883072EAA
S11306C0000C880B990B0E94790B9B01AC0160E034
S11306D070E08AE794E40E94CF0A20E030E04AE721
S11306E054E40E94050C0E94410B68A779A7DF918E
S11306F0CF910895CF93DF93EB01E0E4FAE086A372
S113070097A388E081870E942601CE010E945803A6
S113071009C00E946D010E9729F00E94420180E0F9
S113072090E00CC08091202190912121019789F3C0
S113073081E090E08093202190932121DF91CF915B
S11307400895CF93DF93EB01E0E4FAE086A397A347
S113075088E081870E942601CE010E94580309C0C7
S11307600E946D010F9729F00E94420180E090E001
S11307700CC08091202190912121019789F381E07F
S113078090E08093202190932121DF91CF910895CF
S1130790E0E4FAE086A397A388E081870E944201FF
S11307A004C00E946D010E9769F4809120219091FC
S11307B021210197B1F381E090E08093202190936F
S11307C02121089580E090E00895CF93DF93CDB781
S11307D0DEB76297CDBFDEBF8AE0E8E2F0E2DE0179
S11307E0119601900D928A95E1F788E0E2E3F0E238
S11307F0DE011B9601900D928A95E1F7BE01655FBB
S11308007F4FCE0101960E94200381E090E0809307
S113081020219093212168EB77E084E591E10E9407
S11308207A03009709F452C384E591E10E94C80356
S1130830009709F44BC368EB77E084E591E10E94EB
S11308407A03009709F442C384E591E10E94C80346
S1130850009709F43BC367E974E084E591E10E94E1
S11308607A03009709F432C384E591E10E94C80336
S1130870009709F42BC367E974E084E591E10E94D1
S11308807A03009709F422C384E591E10E94C80326
S1130890009709F41BC368EC75E084E591E10E94BC
S11308A07A03009709F412C384E591E10E94C80316
S11308B0009709F40BC368EC75E084E591E10E94AC
S11308C07A03009709F402C384E591E10E94C80306
S11308D0009709F4FBC267E275E088EA91E60E949A
S11308E07A03009709F4F2C280E595E40E94C803F4
S11308F0009709F4EBC260EE76E084E591E10E9492
S11309007A03009709F4E2C284E591E10E94C803E6
S1130910009709F4DBC260EE76E084E591E10E9481
S11309207A03009709F4D2C284E591E10E94C803D6
S1130930009709F4CBC265E574E084E591E10E9477
S11309407A03009709F4C2C284E591E10E94C803C6
S1130950009709F4BBC265E574E084E591E10E9467
S11309607A03009709F4B2C284E591E10E94C803B6
S1130970009709F4ABC267E275E084E591E10E9457
S11309807A03009709F4A2C284E591E10E94C803A6
S1130990009709F49BC267E275E084E591E10E9447
S11309A07A03009709F492C284E591E10E94C80396
S11309B0009709F48BC267E974E088EA91E60E9423
S11309C07A03009709F482C280E595E40E94C80383
S11309D0009709F47BC265E574E084E591E10E9427
S11309E07A03009709F472C284E591E10E94C80376
S11309F0009709F46BC265E574E084E591E10E9417
S1130A007A03009709F462C284E591E10E94C80365
S1130A10009709F45BC268EC75E084E591E10E94FB
S1130A207A03009709F452C284E591E10E94C80355
S1130A30009709F44BC268EC75E084E591E10E94EB
S1130A407A03009709F442C284E591E10E94C80345
S1130A50009709F43BC260EE76E084E591E10E94E0
S1130A607A03009709F432C284E591E10E94C80335
S1130A70009709F42BC260EE76E084E591E10E94D0
S1130A807A03009709F422C284E591E10E94C80325
S1130A90009709F41BC268EB77E084ED90E30E94B1
S1130AA07A03009709F412C284E591E10E94C80315
S1130AB0009709F40BC268EB77E084ED90E30E94A1
S1130AC07A03009709F402C284E591E10E94C80305
S1130AD0009709F4FBC160EE76E088EA91E60E9493
S1130AE07A03009709F4F2C180E595E40E94C803F3
S1130AF0009709F4EBC167E974E084E591E10E9491
S1130B007A03009709F4E2C184E591E10E94C803E5
S1130B10009709F4DBC167E974E084E591E10E9480
S1130B207A03009709F4D2C184E591E10E94C803D5
S1130B30009709F4CBC168EC75E084E591E10E946B
S1130B407A03009709F4C2C184E591E10E94C803C5
S1130B50009709F4BBC168EC75E084E591E10E945B
S1130B607A03009709F4B2C184E591E10E94C803B5
S1130B70009709F4ABC160EE76E084E591E10E9450
S1130B807A03009709F4A2C184E591E10E94C803A5
S1130B90009709F49BC160EE76E084E591E10E9440
S1130BA07A03009709F492C184E591E10E94C80395
S1130BB0009709F48BC168EB77E084ED90E30E9421
S1130BC07A03009709F482C184E591E10E94C80385
S1130BD0009709F47BC168EB77E084ED90E30E9411
S1130BE07A03009709F472C184E591E10E94C80375
S1130BF0009709F46BC160EE76E088EA91E60E9402
S1130C007A03009709F462C180E595E40E94C80361
S1130C10009709F45BC180E595E40E94C80300973E
S1130C2009F454C167E974E084E591E10E947A0310
S1130C30009709F44BC184E591E10E94C803009731
S1130C4009F444C167E974E084E591E10E947A0300
S1130C50009709F43BC184E591E10E94C803009721
S1130C6009F434C168EB77E088EA92E20E947A03DF
S1130C70009709F42BC184E591E10E94C803009711
S1130C8009F424C168EB77E080E595E40E947A03D7
S1130C90009709F41BC184E591E10E94C803009701
S1130CA009F414C168EB77E084E591E10E947A03CA
S1130CB0009709F40BC184E591E10E94C8030097F1
S1130CC009F404C169EA78E084E591E10E947A03B9
S1130CD0009709F4FBC084E591E10E94C8030097E2
S1130CE009F4F4C06DE279E088EA92E20E947A03A2
S1130CF0009709F4EBC084E591E10E94C8030097D2
S1130D0009F4E4C06DE279E088EA92E20E947A0391
S1130D10009709F4DBC084E591E10E94C8030097C1
S1130D2009F4D4C069EA78E088EA92E20E947A037E
S1130D30009709F4CBC084E591E10E94C8030097B1
S1130D4009F4C4C068EB77E088EA92E20E947A036F
S1130D50009709F4BBC084E591E10E94C8030097A1
S1130D6009F4B4C060EE76E088EA91E60E947A0362
S1130D70009709F4ABC084E591E10E94C803009791
S1130D8009F4A4C068EB77E084E591E10E947A035A
S1130D90009709F49BC084E591E10E94C803009781
S1130DA009F494C060EE76E084E591E10E947A0350
S1130DB0009709F48BC084E591E10E94C803009771
S1130DC009F484C068EC75E080EA9AE80E947A032A
S1130DD0009709F47BC084E591E10E94C803009761
S1130DE009F474C080E595E40E94C803009709F4EF
S1130DF06DC067E974E084E591E10E947A0300978D
S1130E0009F464C084E591E10E94C803009709F4E1
S1130E105DC067E974E084E591E10E947A0300977C
S1130E2009F454C084E591E10E94C803009709F4D1
S1130E304DC067E974E084E591E10E947A0300976C
S1130E4009F444C084E591E10E94C8030097F1F1DC
S1130E5060EE76E088EA91E60E947A030097B1F1A9
S1130E6084E591E10E94C803009781F165E574E08F
S1130E7084E591E10E947A03009741F184E591E1D0
S1130E800E94C803009711F167E974E088EA92E2CE
S1130E900E947A030097D1F084E591E10E94C8038F
S1130EA00097A1F06BED73E080E595E40E947A036E
S1130EB0009761F084E591E10E94C803009731F046
S1130EC0109220211092212181E090E06296CDBF02
S1130ED0DEBFDF91CF910895E0E4FAE086A397A303
S1130EE088E081870E94420104C00E946D010F972F
S1130EF069F480912021909121210197B1F381E03F
S1130F0090E08093202190932121089580E090E047
S1130F100895CF93DF93CDB7DEB76197CDBFDEBF22
S1130F208BE0EAE3F0E2DE01119601900D928A95DE
S1130F30E1F786E0E5E4F0E2DE011C9601900D9213
S1130F408A95E1F7BE01645F7F4FCE0101960E944E
S1130F50200381E090E080932021909321216DE291
S1130F6078E088EA92E20E94A103892B09F482C006
S1130F7084E591E10E946C07892B09F47BC068EB3E
S1130F8077E088EA92E20E94A103892B09F472C0F7
S1130F9084E591E10E946C07892B09F46BC060EE33
S1130FA076E088EA92E20E94A103892B09F462C0E8
S1130FB084E591E10E946C07892B09F45BC065E725
S1130FC075E088EA92E20E94A103892B09F452C0D9
S1130FD084E591E10E946C07892B09F44BC067E218
S1130FE075E088EA92E20E94A103892B09F442C0C9
S1130FF084E591E10E946C07892BE1F167E974E0D3
S113100088EA92E20E94A103892BA1F184E591E18F
S11310100E946C07892B71F167E174E088EA92E21F
S11310200E94A103892B31F184E591E10E946C07B0
S1131030892B01F16BED73E088EA92E20E94A1032F
S1131040892BC1F084E591E10E946C07892B91F012
S113105060E773E088EA92E20E94A103892B51F0D1
S113106084E591E10E946C07892B21F010922021E4
S11310701092212180E090E06196CDBFDEBFDF9128
S1131080CF910895CF93DF93CDB7DEB76597CDBFEA
S1131090DEBF0E9463010E9449010E94D9020E949E
S11310A036010E94260181E08093A200789400E03A
S11310B01AE00F2EF3ECAF2EBB24B394F02D0F2EB9
S11310C0F6E42F2EF6E33F2E412CF02D0F2EF5E4FF
S11310D06F2EF6E37F2E812CF02D0F2EF4E4CF2E0D
S11310E0F6E3DF2EE12CF02D0E946D018031910595
S11310F009F00AC20E946D0180319105D9F304C23E
S11311000E946D010197E1F3EFCF8230910519F54B
S11311108AE0EBE4F0E2DE011C9601900D928A95E0
S1131120E1F78BE0E5E5F0E2DE01119601900D9226
S11311308A95E1F7BE016F5F7F4FCE010C960E9446
S11311404B0385E893E0F80180A791A70E946D0105
S11311500297E1F3C9CF83309105E9F4CC86DD86AB
S1131160EE868BE0E0E6F0E2DE01119601900D924E
S11311708A95E1F7BE016F5F7F4FCE010C960E9406
S11311804B0383E593E0F80180A791A70E946D01CA
S11311900397E1F3A9CF8430910519F58AE0EBE6D2
S11311A0F0E2DE011C9601900D928A95E1F78BE046
S11311B0E5E7F0E2DE01119601900D928A95E1F7E0
S11311C0BE016F5F7F4FCE010C960E944B0383E2FA
S11311D093E0F80180A791A70E946D010497E1F3C1
S11311E083CF85309105E9F46C867D868E868BE00D
S11311F0E0E8F0E2DE01119601900D928A95E1F7A4
S1131200BE016F5F7F4FCE010C960E944B0386EFA9
S113121092E0F80180A791A70E946D010597E1F380
S113122063CF86309105E9F42C863D864E868BE0AB
S1131230EBE8F0E2DE01119601900D928A95E1F758
S1131240BE016F5F7F4FCE010C960E944B038BEC67
S113125092E0F80180A791A70E946D010697E1F33F
S113126043CF8730910519F58AE0E6E9F0E2DE0123
S11312701C9601900D928A95E1F78BE0E0EAF0E28A
S1131280DE01119601900D928A95E1F7BE016F5F20
S11312907F4FCE010C960E944B0383EA92E0F80143
S11312A080A791A70E946D010797E1F31DCF8830B5
S11312B0910501F587E496E3A0E08C879D87AE87CE
S11312C08BE0EBEAF0E2DE01119601900D928A9533
S11312D0E1F7BE016F5F7F4FCE010C960E944B0376
S11312E08DE792E0F80180A791A70E946D0108970D
S11312F0E1F3FACE8930910519F58AE0E6EBF0E2E4
S1131300DE011C9601900D928A95E1F78BE0E0ECEA
S1131310F0E2DE01119601900D928A95E1F7BE018B
S11313206F5F7F4FCE010C960E944B038AE592E0DB
S1131330F80180A791A70E946D010997E1F3D4CE2B
S1131340009701F581E496E3A0E08C879D87AE8742
S11313508BE0EBECF0E2DE01119601900D928A95A0
S1131360E1F7BE016F5F7F4FCE010C960E944B03E5
S113137088E392E0F80180A791A70E946D01892B70
S1131380E1F3B2CE8A30910519F58AE0E6EDF0E298
S1131390DE011C9601900D928A95E1F78BE0E0EE58
S11313A0F0E2DE01119601900D928A95E1F7BE01FB
S11313B06F5F7F4FCE010C960E944B0388E192E051
S11313C0F80180A791A70E946D010A97E1F38CCEE2
S11313D08B30910501F582E496E3A0E08C879D872C
S11313E0AE878BE0EBEEF0E2DE01119601900D92F8
S11313F08A95E1F7BE016F5F7F4FCE010C960E9484
S11314004B038AEF91E0F80180A791A70E946D0138
S11314100B97E1F369CE8C30910501F583E497E3F2
S1131420A0E08C879D87AE878BE0E6EFF0E2DE01DB
S1131430119601900D928A95E1F7BE016F5F7F4F7F
S1131440CE010C960E944B038DED91E0F80180A72C
S113145091A70E946D010C97E1F346CE8D30910562
S113146009F58AE0E1E0F1E2DE011C9601900D92BB
S11314708A95E1F78BE0EBE0F1E2DE011196019051
S11314800D928A95E1F7BE016F5F7F4FCE010C96F6
S11314900E944B03F801A0A6B1A60E946D010D970E
S11314A0E1F322CE8E30910539F40E94E5030E94C7
S11314B06D010E97E1F318CE0F9739F40E94890756
S11314C00E946D010F97E1F30FCE0E9442010CCEF2
S11314D083E496E3A0E08C879D87AE878AE0E6E10B
S11314E0F1E2DE01119601900D928A95E1F7BE01B9
S11314F06F5F7F4FCE010C960E944B038BEB93E002
S1131500F80180A791A7FCCD1092202110922121EF
S11315108130910509F0F9CDDBCF1F920F920FB600
S11315200F92112408B60F9218BE09B60F9219BE75
S11315300BB60F921BBE2F933F934F935F936F9302
S11315407F938F939F93AF93BF93EF93FF93809178
S1131550202190912121009719F40E94420108C092
S1131560019731F482E090E080932021909321212F
S1131570FF91EF91BF91AF919F918F917F916F9167
S11315805F914F913F912F910F900BBE0F9009BE29
S11315900F9008BE0F900FBE0F901F9018950E94D9
S11315A0E30A0C94CB0B0E94C40B58F00E94BD0BB1
S11315B040F029F45F3F29F00C94B40B51110C94C2
S11315C0FF0B0C94BA0B0E94DC0B68F39923B1F364
S11315D0552391F3951B550BBB27AA276217730755
S11315E0840738F09F5F5F4F220F331F441FAA1FE9
S11315F0A9F335D00E2E3AF0E0E832D091505040A5
S1131600E695001CCAF72BD0FE2F29D0660F771F52
S1131610881FBB1F261737074807AB07B0E809F038
S1131620BB0B802DBF01FF2793585F4F3AF09E3FBD
S1131630510578F00C94B40B0C94FF0B5F3FE4F36A
S1131640983ED4F3869577956795B795F7959F5F00
S1131650C9F7880F911D9695879597F90895E1E04C
S1131660660F771F881FBB1F621773078407BA07AB
S113167020F0621B730B840BBA0BEE1F88F7E09506
S113168008950E94480B6894B1110C94FF0B0895BF
S11316900E94E40B88F09F5798F0B92F9927B7510F
S11316A0B0F0E1F0660F771F881F991F1AF0BA9502
S11316B0C9F714C0B13091F00E94FE0BB1E0089557
S11316C00C94FE0B672F782F8827B85F39F0B93F49
S11316D0CCF3869577956795B395D9F73EF49095B5
S11316E08095709561957F4F8F4F9F4F0895E89433
S11316F009C097FB3EF490958095709561957F4F56
S11317008F4F9F4F9923A9F0F92F96E9BB27939503
S1131710F695879577956795B795F111F8CFFAF413
S1131720BB0F11F460FF1BC06F5F7F4F8F4F9F4F44
S113173016C0882311F096E911C0772321F09EE8A2
S1131740872F762F05C0662371F096E8862F70E008
S113175060E02AF09A95660F771F881FDAF7880FE2
S11317609695879597F9089597F99F6780E870E0B3
S113177060E008959FEF80EC089500240A94161603
S1131780170618060906089500240A94121613066B
S1131790140605060895092E0394000C11F48823F9
S11317A052F0BB0F40F4BF2B11F460FF04C06F5F15
S11317B07F4F8F4F9F4F089557FD9058440F551FEB
S11317C059F05F3F71F04795880F97FB991F61F0BF
S11317D09F3F79F087950895121613061406551F36
S11317E0F2CF4695F1DF08C0161617061806991FA2
S11317F0F1CF86957105610508940895E894BB2797
S113180066277727CB0197F908950E94180C0C944A
S1131810CB0B0E94BD0B38F00E94C40B20F0952323
S113182011F00C94B40B0C94BA0B11240C94FF0B10
S11318300E94DC0B70F3959FC1F3950F50E0551F88
S1131840629FF001729FBB27F00DB11D639FAA2711
S1131850F00DB11DAA1F649F6627B00DA11D661F60
S1131860829F2227B00DA11D621F739FB00DA11D81
S1131870621F839FA00D611D221F749F3327A00D3B
S1131880611D231F849F600D211D822F762F6A2FD7
S113189011249F5750409AF0F1F088234AF0EE0F3C
S11318A0FF1FBB1F661F771F881F91505040A9F769
S11318B09E3F510580F00C94B40B0C94FF0B5F3FDA
S11318C0E4F3983ED4F3869577956795B795F795A5
S11318D0E7959F5FC1F7FE2B880F911D969587951D
S10B18E097F90895F894FFCF75
S11318E80E000D000B0007007E00BE00DE00EE00B7
S11318F87D00BD00DD00ED007B00BB00DB00EB00DC
S11319087700B700D700E700536F756E6473204FF4
S1131918660053696C656E63650044657363656E40
S113192864696E67005363616C6500433623202F36
S11319382044623600313130382E373320487A005B
S1131948313137342E363620487A00443623202F56
S11319582045623600313234342E353120487A003D
S1131968313331382E353120487A00313339362E27
S1131978393120487A00463623202F204762360022
S1131988313437392E393820487A00313536372EF4
S1131998393820487A00473623202F204162360000
S11319A8313636312E323220487A00313736302EED
S11319B8303020487A00413623202F2042623600F6
S11319C8313836342E363620487A00313937352EB8
S11319D8333320487A00323039332E303020487A75
S11319E800433723202F2044623700323231372E08
S11319F8343620487A00313034362E3520487A007F
S9030000FC
