:100000000C94FE000C941C010C941C010C941C011B
:100010000C941C010C941C010C941C010C941C01EC
:100020000C941C010C941C010C941C010C941C01DC
:100030000C941C010C941C010C941C010C941C01CC
:100040000C941C010C941C010C941C010C941C01BC
:100050000C941C010C941C010C941C010C941C01AC
:100060000C941C010C941C010C941C010C941C019C
:100070000C941C010C941C010C941C010C941C018C
:100080000C941C010C941C010C941C010C941C017C
:100090000C941C010C941C010C941C010C941C016C
:1000A0000C941C010C941C010C941C010C941C015C
:1000B0000C941C010C941C010C941C010C941C014C
:1000C0000C941C010C941C010C941C010C941C013C
:1000D0000C941C010C941C010C941C010C941C012C
:1000E0000C941C010C941C010C941C010C941C011C
:1000F0000C941C010C941C010C941C010C941C010C
:100100000C941C010C941C010C941C010C941C01FB
:100110000C941C010C941C010C941C010C941C01EB
:100120000C941C010C941C010C941C010C941C01DB
:100130000C941C010C941C010C941C010C941C01CB
:100140000C941C010C941C010C941C010C941C01BB
:100150000C941C010C941C010C941C010C941C01AB
:100160000C941C010C941C010C941C010C941C019B
:100170000C941C010C941C010C941C010C941C018B
:100180000C941C010C941C010C941C010C941C017B
:100190000C941C010C941C010C941C010C941C016B
:1001A0000C941C010C941C010C941C010C941C015B
:1001B0000C941C010C941C010C941C010C941C014B
:1001C0000C941C010C941C010C941C010C941C013B
:1001D0000C941C010C941C010C941C010C941C012B
:1001E0000C941C010C941C010C941C010C941C011B
:1001F0000C941C010C941C010C941C0111241FBEB6
:10020000CFEFCDBFDFE3DEBF00E00CBF18BE19BEED
:100210001ABE1BBE10E2A0E0B0E2E4E1FFE000E0A5
:100220000BBF02C007900D92A837B107D9F71BBECC
:100230000E94C9040C9488070C940000CF93DF93AC
:1002400000D01F92CDB7DEB719821A821B821C82A2
:1002500089819A81AB81BC8181329E44A105B1051F
:10026000A0F489819A81AB81BC810196A11DB11D49
:1002700089839A83AB83BC8389819A81AB81BC815A
:1002800081329E44A105B10560F32496CDBFDEBF47
:10029000DF91CF910895E0EEF6E087E3808383E37A
:1002A00084838FEF80932007E0E4F4E081E0808393
:1002B00088E2838B80E8828B85E1808B80E499E300
:1002C000868B978B89E1848B0895E0E4F2E080E3EC
:1002D000828385E080838CE1818381E880A381E053
:1002E00082A380E281A30895E0E4F2E080E38283C8
:1002F00089E080838CE1818382E4838381E880A725
:1003000088E281A708958A30910514F4C096089573
:10031000C7960895CF93DF931F92CDB7DEB7000045
:10032000000080E090E5A9E3B0E00BB6ABBFFC01B4
:1003300080810BBE8983898188236CF440E050E57D
:1003400069E370E00BB66BBFFA0180810BBE898355
:1003500089818823BCF30F90DF91CF910895892B79
:1003600079F40E948A012FE080E090E5A9E3B0E0F3
:100370000BB6ABBFFC0120830BBE0E948A010EC0EE
:100380000E948A0128E080E090E5A9E3B0E00BB686
:10039000ABBFFC0120830BBE0E948A010E941E019C
:1003A0000895CF93C82F0E948A0141E050E569E388
:1003B00070E00BB66BBFFA01C0830BBECF910895FE
:1003C000CF93DF93EC018881882341F021960E942E
:1003D000D1010E948A0189918111F9CFDF91CF91DA
:1003E0000895E0EAF6E08FE0808388E1848B858BD6
:1003F000868B878B08956F927F928F929F92AF9298
:10040000BF92CF92DF92EF92FF920F931F93CF9301
:10041000DF93CDB7DEB7AA97CDBFDEBF88E0E0E0BF
:10042000F0E2DE01919601900D928A95E1F788E065
:10043000E8E0F0E2DE01599601900D928A95E1F72D
:1004400088E0E0E1F0E2DE01519601900D928A959C
:10045000E1F788E0E8E1F0E2DE01199601900D9203
:100460008A95E1F788E0E0E2F0E2DE011196019082
:100470000D928A95E1F719A61AA6C980DA80A98497
:10048000BA8489889A88698C7A8CDE01919601E019
:1004900010E060E070E00F2EF0EAEF2EF6E0FF2EA5
:1004A000F02D04C06F5F7F4F0F5F1F4F8C9112962E
:1004B000F701848300000000808590E089A79AA757
:1004C0006115710531F589A59AA56816790609F4B3
:1004D00098C0FE017B9641E050E02191319189A5C1
:1004E0009AA52817390779F44330510509F48CC0CF
:1004F0004230510509F48BC04130510509F48AC0DE
:100500008EE090E0ADC04F5F5F4F4430510529F75A
:10051000C9CF6130710531F589A59AA5881699066C
:1005200009F47BC0FE01739641E050E021913191C6
:1005300089A59AA52817390779F44330510509F49C
:100540006FC04230510509F46EC04130510509F4C5
:100550006DC080E090E084C04F5F5F4F4430510534
:1005600029F7A0CF6230710531F089A59AA5C81688
:10057000D90639F55EC089A59AA5A816B90609F469
:100580005BC0FE013B9641E050E02191319189A58D
:100590009AA52817390779F44330510509F44FC05B
:1005A0004230510509F44EC04130510509F44DC0A7
:1005B0008FE090E055C04F5F5F4F4430510529F701
:1005C00071CFFE01339681E090E04191519129A5D0
:1005D0003AA54217530751F40097D1F181309105A4
:1005E000D1F10297D9F18AE090E03AC001968430C7
:1005F000910559F7043011050CF454CF80E190E0D7
:100600002FC08EE090E02CC081E090E029C084E013
:1006100090E026C087E090E023C080E090E020C01A
:1006200082E090E01DC085E090E01AC088E090E094
:1006300017C08DE090E014C08FE090E011C083E01F
:1006400090E00EC086E090E00BC089E090E008C02A
:100650008DE090E005C08CE090E002C08BE090E07F
:10066000AA96CDBFDEBFDF91CF911F910F91FF9072
:10067000EF90DF90CF90BF90AF909F908F907F9042
:100680006F9008956F927F928F929F92AF92BF92D8
:10069000CF92DF92EF92FF920F931F93CF93DF934E
:1006A0008C0128E380E090E5A9E3B0E00BB6ABBF96
:1006B000FC0120830BBE0E948A012FE080E090E5C0
:1006C000A9E3B0E00BB6ABBFFC0120830BBE0E94D8
:1006D0008A0121E080E090E5A9E3B0E00BB6ABBF72
:1006E000FC0120830BBE0E948A010F2E812CF0E5B5
:1006F0009F2EF9E3AF2EB12CF02D77247394C0E434
:10070000D2E00F2EC12CF0E8DF2EF8E2EF2EF12C14
:10071000F02D612C0E948A010BB6ABBEF4017082F1
:100720000BBE0E948A016CA57DA580E090E00E942E
:10073000690620E030E040E05CE30E941B0720E017
:1007400030E040EA50E40E941B0720E030E040E83F
:100750005FE30E942E06181634F00BB6EBBEF601CE
:1007600070820BBE05C00BB6EBBEF60160820BBEFD
:100770000E948A010E941E010E94FB0108171907AE
:1007800009F4C8CF409709F4C5CFDF91CF911F91ED
:100790000F91FF90EF90DF90CF90BF90AF909F9020
:1007A0008F907F906F9008952F923F924F925F921B
:1007B0006F927F928F929F92AF92BF92CF92DF9271
:1007C000EF92FF920F931F93CF93DF93CDB7DEB7D6
:1007D0002E97CDBFDEBF8D879E8787E0E8E2F0E2EF
:1007E000DE01119601900D928A95E1F70F2E412CB2
:1007F000F0E55F2EF9E36F2E712CF02D11E0689477
:10080000222426F8332431F80E948A010BB66BBEED
:10081000F20110830BBE0E948A01F10184A195A10F
:10082000929582958F7089279F7089270E948301F6
:10083000082FF10184A195A18F7099270E9483014F
:100840008C87F10164A175A180E090E00E946906A7
:1008500020E030E040E05CE30E941B0720E030E055
:1008600040EA50E40E941B076B017C010E943306A2
:100870004B015C01072E000C880B990B0E946B0644
:100880009B01AC01C701B6010E94C10520E030E028
:1008900040E251E40E941B07688779878A879B871B
:1008A0000E9433066B017C01072E000C880B990B0C
:1008B0000E946B069B01AC01688579858A859B85C2
:1008C0000E94C10520E030E040E251E40E941B0795
:1008D0000E943306688779878A879B87C4010E94B4
:1008E0008301B82EC6010E948301F82E8885998560
:1008F0000E948301E82E0E948A018B2D0E94D10163
:100900000E948A018EE20E94D1010E948A018F2DED
:100910000E94D1010E948A018E2D0E94D1010E9465
:100920008A01CE0101960E94E0010E948A01802F77
:100930000E94D1010E948A018C850E94D1010E94EF
:100940008A0189E20E94D1010E941E010E948A014F
:100950000E94FB012D853E852817390709F454CFE5
:10096000409709F451CF2E96CDBFDEBFDF91CF91D6
:100970001F910F91FF90EF90DF90CF90BF90AF90BD
:100980009F908F907F906F905F904F903F902F90AF
:100990000895CF93DF93CDB7DEB7C954D109CDBF4A
:1009A000DEBF8DE0EFE2F0E2DE01DD9601900D9218
:1009B0008A95E1F782E1ECE3F0E2DE011196019025
:1009C0000D928A95E1F78EE0EEE4F0E2DE01929678
:1009D00001900D928A95E1F78FE0ECE5F0E2DE01FF
:1009E000539601900D928A95E1F78DE0EBE6F0E2E7
:1009F000DE01D09601900D928A95E1F70E94F101F7
:100A00000E944B0128E380E090E5A9E3B0E00BB63B
:100A1000ABBFFC0120830BBE0E948A012FE080E067
:100A200090E5A9E3B0E00BB6ABBFFC0120830BBEA1
:100A30000E948A0121E080E090E5A9E3B0E00BB6D6
:100A4000ABBFFC0120830BBE0E948A01E12CF12C7C
:100A50000F2E812CF0E59F2EF9E3AF2EB12CF02D57
:100A6000DD24D3940F2EF0ECCF2EF02D0E94FB014D
:100A70008C018230910540F40E946501C7010E94FB
:100A8000AF01E094F094F2CF9C0122503109223062
:100A9000310530F40E946501C8010E94D403E6CFFD
:100AA0009C012450310922303105C0F40E946501B7
:100AB0000E948A010BB6ABBEF401D0820BBE0E942D
:100AC0008A010E948A01CE01CD960E94E0010E9417
:100AD0008A010E941E010E941E01C8CF069702973C
:100AE000F8F40E9465010E948A010BB6ABBEF401C6
:100AF000D0820BBE0E948A01CE0101960E94E001C5
:100B00000E948A010BB6ABBEF401C0820BBE0E94EC
:100B10008A01CE0182960E94E0010E948A01A6CF3E
:100B2000C8010E97029750F40E9474010E948A0136
:100B3000C8010E9442030E948A0198CF003111052A
:100B400009F494CF0E9465010E948A010BB6ABBEE6
:100B5000F401D0820BBE0E948A01CE0143960E940E
:100B6000E0010E948A010BB6ABBEF401C0820BBE4D
:100B70000E948A01CE01C0960E94E0010E948A0173
:100B800075CF5058BB27AA270E94D9050C94E106BF
:100B90000E94D30638F00E94DA0620F039F49F3F15
:100BA00019F426F40C94D0060EF4E095E7FB0C94AF
:100BB000CA06E92F0E94F20658F3BA1762077307B4
:100BC0008407950720F079F4A6F50C9414070EF429
:100BD000E0950B2EBA2FA02D0B01B90190010C014D
:100BE000CA01A0011124FF27591B99F0593F50F465
:100BF000503E68F11A16F040A22F232F342F4427BD
:100C0000585FF3CF469537952795A795F0405395B4
:100C1000C9F77EF41F16BA0B620B730B840BBAF084
:100C20009150A1F0FF0FBB1F661F771F881FC2F7EF
:100C30000EC0BA0F621F731F841F48F48795779503
:100C40006795B795F7959E3F08F0B0CF9395880FBD
:100C500008F09927EE0F9795879508950E94A606AC
:100C600008F481E008950E943A066894B1110C944A
:100C7000150708950E94FA0688F09F5798F0B92F3B
:100C80009927B751B0F0E1F0660F771F881F991FC1
:100C90001AF0BA95C9F714C0B13091F00E94140748
:100CA000B1E008950C941407672F782F8827B85F58
:100CB00039F0B93FCCF3869577956795B395D9F719
:100CC0003EF490958095709561957F4F8F4F9F4F23
:100CD0000895E89409C097FB3EF49095809570952F
:100CE00061957F4F8F4F9F4F9923A9F0F92F96E978
:100CF000BB279395F695879577956795B795F111ED
:100D0000F8CFFAF4BB0F11F460FF1BC06F5F7F4F89
:100D10008F4F9F4F16C0882311F096E911C077239B
:100D200021F09EE8872F762F05C0662371F096E8A4
:100D3000862F70E060E02AF09A95660F771F881F73
:100D4000DAF7880F9695879597F90895990F000817
:100D5000550FAA0BE0E8FEEF16161706E807F9078D
:100D6000C0F012161306E407F50798F0621B730B28
:100D7000840B950B39F40A2661F0232B242B252BA9
:100D800021F408950A2609F4A140A6958FEF811D4C
:100D9000811D089597F99F6780E870E060E00895ED
:100DA0009FEF80EC089500240A9416161706180683
:100DB0000906089500240A9412161306140605065F
:100DC0000895092E0394000C11F4882352F0BB0FF0
:100DD00040F4BF2B11F460FF04C06F5F7F4F8F4F53
:100DE0009F4F089557FD9058440F551F59F05F3F8E
:100DF00071F04795880F97FB991F61F09F3F79F03D
:100E000087950895121613061406551FF2CF4695BE
:100E1000F1DF08C0161617061806991FF1CF869540
:100E20007105610508940895E894BB276627772724
:100E3000CB0197F908950E942E070C94E1060E94B9
:100E4000D30638F00E94DA0620F0952311F00C94B6
:100E5000CA060C94D00611240C9415070E94F206C1
:100E600070F3959FC1F3950F50E0551F629FF001FD
:100E7000729FBB27F00DB11D639FAA27F00DB11D16
:100E8000AA1F649F6627B00DA11D661F829F22279F
:100E9000B00DA11D621F739FB00DA11D621F839F26
:100EA000A00D611D221F749F3327A00D611D231FFC
:100EB000849F600D211D822F762F6A2F11249F574A
:100EC00050409AF0F1F088234AF0EE0FFF1FBB1F4D
:100ED000661F771F881F91505040A9F79E3F51050C
:100EE00080F00C94CA060C9415075F3FE4F3983E1B
:100EF000D4F3869577956795B795F795E7959F5FB6
:100F0000C1F7FE2B880F911D9695879597F9089547
:040F1000F894FFCF83
:100F14000E000D000B0007007E00BE00DE00EE0098
:100F24007D00BD00DD00ED007B00BB00DB00EB00BD
:100F34007700B700D700E700562028307800004D2E
:100F44006974636820497276696E00004D61792086
:100F540074686520536368776172747A000062650F
:100F6400207769746820796F752100004772617376
:100F740073737373732E2E2E200000746173746563
:080F840073206261642100008A
:00000001FF
