:020000020000FC
:040000000C9400025A
:102000004D697463682773206661766F72697465C1
:102010003A0D0A312E204F532F436F6D7075746542
:10202000720D0A322E2045452F434520436F7572AD
:1020300073650D0A332E20486F6262790D0A342EC3
:102040002051756F74650D0A352E204D6F766965C8
:102050000D0A362E2052652D646973706C617920EB
:102060004D656E750D0A4553433A20657869740DC8
:042070000A0D0A004B
:1020E0004D697463682773206661766F72697465E1
:1020F000204F532F436F6D70757465722069732084
:1021000057696E646F77732F50430D0A0D0A0000F4
:102200004D697463682773206661766F72697465BF
:102210002045452F434520436F75727365206973D0
:10222000204469676974616C204C6F6769630D0AAB
:042230000D0A000093
:1022A0004D697463682773206661766F726974651F
:1022B00020486F6262792069732077656967687466
:0C22C0006C696674696E670D0A0D0A00F7
:102400004D697463682773206661766F72697465BD
:102410002051756F74652069733A205765206D618E
:102420006465204972616E2067726561742061671E
:1024300061696E2E202D5472756D700D0A0D0A00A3
:1024A0004D697463682773206661766F726974651D
:1024B000204D6F7669652069732045646765206FDC
:1024C0006620546F6D6F72726F770D0A0D0A0000EF
:06260000446F6E6521002D
:10040000CFEFCDBFCFE3CEBF0E944E020E9441028C
:10041000E0E0F0E20E9465020E946B02013369F0A5
:10042000023389F00333A9F00433C9F00533E9F04E
:10043000063371F30B31F9F0EFCFE0EEF0E20E94FA
:1004400065020C940802E0E0F2E20E9465020C945E
:100450000802E0EAF2E20E9465020C940802E0E081
:10046000F4E20E9465020C940802E0EAF4E20E94C1
:1004700065020C940802E0E0F6E20E94650200C00A
:10048000FFCF08E10093A40903E00093A50909E068
:100490000093A60900EE0093A709089504E00093D5
:1004A000620608E000936106009365060AE0009387
:1004B000C1070093C60708951F931091A10915FF66
:1004C000FCCF0093A0091F9108950591003011F011
:1004D000F3DFFBCF08950091A10907FFFCCF009146
:0404E000A0090895D2
:00000001FF
