:020000020000FC
:02000000FFC13E
:1004000007E10093E10603E10093E5060FEF009397
:1004100021070FEF0093010701E000934004F4E08F
:10042000E2E500E8019308E2008305E1009350044F
:1004300008E200933900B0E8A0E00C9168E071E0B8
:10044000802F8723871771F000C00C9352E317D0D9
:10045000001F08F003C051E0050F00C0603069F3D1
:100460006A95F3CF0C9352E30AD0079508F003C0C6
:1004700050E8050F00C0603001F36A95F3CF44E106
:100480003FEF3A953030E9F74A954030C9F75A9531
:060490005030A9F70895A9
:00000001FF
